{
	"ether-smartcontract/SimpleContract.sol": {
		"simpleContract": {
			"abi": [
				{
					"inputs": [],
					"stateMutability": "nonpayable",
					"type": "constructor"
				},
				{
					"inputs": [],
					"name": "getData",
					"outputs": [
						{
							"internalType": "uint256",
							"name": "retVal",
							"type": "uint256"
						}
					],
					"stateMutability": "view",
					"type": "function"
				},
				{
					"inputs": [
						{
							"internalType": "uint256",
							"name": "x",
							"type": "uint256"
						}
					],
					"name": "setData",
					"outputs": [],
					"stateMutability": "nonpayable",
					"type": "function"
				}
			],
			"devdoc": {
				"kind": "dev",
				"methods": {},
				"version": 1
			},
			"evm": {
				"assembly": "    /* \"ether-smartcontract/SimpleContract.sol\":41:286  contract simpleContract {... */\n  mstore(0x40, 0x80)\n    /* \"ether-smartcontract/SimpleContract.sol\":71:94  constructor() public {} */\n  callvalue\n  dup1\n  iszero\n  tag_1\n  jumpi\n  0x00\n  dup1\n  revert\ntag_1:\n  pop\n    /* \"ether-smartcontract/SimpleContract.sol\":41:286  contract simpleContract {... */\n  dataSize(sub_0)\n  dup1\n  dataOffset(sub_0)\n  0x00\n  codecopy\n  0x00\n  return\nstop\n\nsub_0: assembly {\n        /* \"ether-smartcontract/SimpleContract.sol\":41:286  contract simpleContract {... */\n      mstore(0x40, 0x80)\n      callvalue\n      dup1\n      iszero\n      tag_1\n      jumpi\n      0x00\n      dup1\n      revert\n    tag_1:\n      pop\n      jumpi(tag_2, lt(calldatasize, 0x04))\n      shr(0xe0, calldataload(0x00))\n      dup1\n      0x3bc5de30\n      eq\n      tag_3\n      jumpi\n      dup1\n      0x5b4b73a9\n      eq\n      tag_4\n      jumpi\n    tag_2:\n      0x00\n      dup1\n      revert\n        /* \"ether-smartcontract/SimpleContract.sol\":195:284  function getData() public view returns (uint256 retVal){... */\n    tag_3:\n      tag_5\n      tag_6\n      jump\t// in\n    tag_5:\n      mload(0x40)\n      dup1\n      dup3\n      dup2\n      mstore\n      0x20\n      add\n      swap2\n      pop\n      pop\n      mload(0x40)\n      dup1\n      swap2\n      sub\n      swap1\n      return\n        /* \"ether-smartcontract/SimpleContract.sol\":124:190  function setData(uint256 x) public {... */\n    tag_4:\n      tag_7\n      0x04\n      dup1\n      calldatasize\n      sub\n      0x20\n      dup2\n      lt\n      iszero\n      tag_8\n      jumpi\n      0x00\n      dup1\n      revert\n    tag_8:\n      dup2\n      add\n      swap1\n      dup1\n      dup1\n      calldataload\n      swap1\n      0x20\n      add\n      swap1\n      swap3\n      swap2\n      swap1\n      pop\n      pop\n      pop\n      tag_9\n      jump\t// in\n    tag_7:\n      stop\n        /* \"ether-smartcontract/SimpleContract.sol\":195:284  function getData() public view returns (uint256 retVal){... */\n    tag_6:\n        /* \"ether-smartcontract/SimpleContract.sol\":235:249  uint256 retVal */\n      0x00\n        /* \"ether-smartcontract/SimpleContract.sol\":267:277  storedData */\n      dup1\n      sload\n        /* \"ether-smartcontract/SimpleContract.sol\":260:277  return storedData */\n      swap1\n      pop\n        /* \"ether-smartcontract/SimpleContract.sol\":195:284  function getData() public view returns (uint256 retVal){... */\n      swap1\n      jump\t// out\n        /* \"ether-smartcontract/SimpleContract.sol\":124:190  function setData(uint256 x) public {... */\n    tag_9:\n        /* \"ether-smartcontract/SimpleContract.sol\":182:183  x */\n      dup1\n        /* \"ether-smartcontract/SimpleContract.sol\":169:179  storedData */\n      0x00\n        /* \"ether-smartcontract/SimpleContract.sol\":169:183  storedData = x */\n      dup2\n      swap1\n      sstore\n      pop\n        /* \"ether-smartcontract/SimpleContract.sol\":124:190  function setData(uint256 x) public {... */\n      pop\n      jump\t// out\n\n    auxdata: 0xa26469706673582212202ab0ee58dd5d105caa223d9f1f604e71c77c10d8c15aaf232f9fa86be10b7d1564736f6c634300060c0033\n}\n",
				"bytecode": {
					"linkReferences": {},
					"object": "608060405234801561001057600080fd5b5060c78061001f6000396000f3fe6080604052348015600f57600080fd5b506004361060325760003560e01c80633bc5de301460375780635b4b73a9146053575b600080fd5b603d607e565b6040518082815260200191505060405180910390f35b607c60048036036020811015606757600080fd5b81019080803590602001909291905050506087565b005b60008054905090565b806000819055505056fea26469706673582212202ab0ee58dd5d105caa223d9f1f604e71c77c10d8c15aaf232f9fa86be10b7d1564736f6c634300060c0033",
					"opcodes": "PUSH1 0x80 PUSH1 0x40 MSTORE CALLVALUE DUP1 ISZERO PUSH2 0x10 JUMPI PUSH1 0x0 DUP1 REVERT JUMPDEST POP PUSH1 0xC7 DUP1 PUSH2 0x1F PUSH1 0x0 CODECOPY PUSH1 0x0 RETURN INVALID PUSH1 0x80 PUSH1 0x40 MSTORE CALLVALUE DUP1 ISZERO PUSH1 0xF JUMPI PUSH1 0x0 DUP1 REVERT JUMPDEST POP PUSH1 0x4 CALLDATASIZE LT PUSH1 0x32 JUMPI PUSH1 0x0 CALLDATALOAD PUSH1 0xE0 SHR DUP1 PUSH4 0x3BC5DE30 EQ PUSH1 0x37 JUMPI DUP1 PUSH4 0x5B4B73A9 EQ PUSH1 0x53 JUMPI JUMPDEST PUSH1 0x0 DUP1 REVERT JUMPDEST PUSH1 0x3D PUSH1 0x7E JUMP JUMPDEST PUSH1 0x40 MLOAD DUP1 DUP3 DUP2 MSTORE PUSH1 0x20 ADD SWAP2 POP POP PUSH1 0x40 MLOAD DUP1 SWAP2 SUB SWAP1 RETURN JUMPDEST PUSH1 0x7C PUSH1 0x4 DUP1 CALLDATASIZE SUB PUSH1 0x20 DUP2 LT ISZERO PUSH1 0x67 JUMPI PUSH1 0x0 DUP1 REVERT JUMPDEST DUP2 ADD SWAP1 DUP1 DUP1 CALLDATALOAD SWAP1 PUSH1 0x20 ADD SWAP1 SWAP3 SWAP2 SWAP1 POP POP POP PUSH1 0x87 JUMP JUMPDEST STOP JUMPDEST PUSH1 0x0 DUP1 SLOAD SWAP1 POP SWAP1 JUMP JUMPDEST DUP1 PUSH1 0x0 DUP2 SWAP1 SSTORE POP POP JUMP INVALID LOG2 PUSH5 0x6970667358 0x22 SLT KECCAK256 0x2A 0xB0 0xEE PC 0xDD 0x5D LT 0x5C 0xAA 0x22 RETURNDATASIZE SWAP16 0x1F PUSH1 0x4E PUSH18 0xC77C10D8C15AAF232F9FA86BE10B7D156473 PUSH16 0x6C634300060C00330000000000000000 "
				},
				"gasEstimates": {
					"creation": {
						"codeDepositCost": "39800",
						"executionCost": "93",
						"totalCost": "39893"
					},
					"external": {
						"getData()": "991",
						"setData(uint256)": "20242"
					}
				},
				"methodIdentifiers": {
					"getData()": "3bc5de30",
					"setData(uint256)": "5b4b73a9"
				}
			},
			"storageLayout": {
				"storage": [
					{
						"astId": 7,
						"contract": "ether-smartcontract/SimpleContract.sol:simpleContract",
						"label": "storedData",
						"offset": 0,
						"slot": "0",
						"type": "t_uint256"
					}
				],
				"types": {
					"t_uint256": {
						"encoding": "inplace",
						"label": "uint256",
						"numberOfBytes": "32"
					}
				}
			},
			"userdoc": {
				"kind": "user",
				"methods": {},
				"version": 1
			}
		}
	}
}